:100000000A128A11FC2F00308A000408840A820731
:100010000034483448343A344D344D343A3453344F
:040020005334003421
:100C6E00F700770883120313880009100915013065
:100C7E00F0000030F1000A128A1177268312031356
:100C8E0009110800F700770883120313880009146E
:100C9E0009150130F0000030F1000A128A11772692
:100CAE008312031309110800F900790884000A124F
:100CBE008A1103200A128A11003A031908007908D2
:100CCE0084000A128A1103200A128A110A128A114A
:100CDE0049260A128A110130F8007808F9075C2EAD
:100CEE00F301F4017408803AF2007108803A72023E
:100CFE00031D832E7008730203180800F501F60118
:100D0E007608803AFF0087307F02031D902ED03088
:100D1E0075020318A32E0130F5070318F60A0030EA
:100D2E00F6077608803AFF0087307F02031DA12E5A
:100D3E00D0307502031C922E0130F3070318F40A0B
:100D4E000030F407792E38300A128A1137260A122B
:100D5E008A110130F0000030F1000A128A11772654
:100D6E000A128A1101300A128A1137260A128A11C2
:100D7E000130F0000030F1000A128A1177260A12B3
:100D8E008A1106300A128A1137260A128A11013088
:100D9E00F0000030F1000A128A1177260A128A1129
:100DAE000C300A128A1137260A128A110130F0000D
:100DBE000030F1000A128A1177260A128A11803049
:100DCE000A128A1137260A128A110130F0000030F9
:100DDE00F1000A128A1177260800303083120313AD
:100DEE00AA000030AB003030A0000030A10030303F
:100DFE00A2000030A3003030A4000030A500303037
:100E0E00A6000030A7003030A8000030A9008801ED
:100E1E008901831603138801890107309F000A1286
:100E2E008A11AA260A128A1101300A128A115B2629
:100E3E000A128A11013083120313A8070318A90A94
:100E4E000030A9073A3028062904031D862F3030BA
:100E5E00A8000030A9000130A6070318A70A003029
:100E6E00A707363026062704031D862F3030A6002E
:100E7E000030A7000130A4070318A50A0030A5070B
:100E8E003A3024062504031D862F3030A40000308E
:100E9E00A5000130A2070318A30A0030A3073630BD
:100EAE0022062304031D862F3030A2000030A3003B
:100EBE000130AA070318AB0A0030AB073A302A06F6
:100ECE002B04031D862F3030AA000030AB000130FA
:100EDE00A0070318A10A0030A10732302006210412
:100EEE00031D862F34302A062B04031D862F303027
:100EFE00A0000030A1003030AA000030AB00C63098
:100F0E000A128A1137260A128A118312031326082F
:100F1E000A128A1149260A128A11C7300A128A1138
:100F2E0037260A128A118312031328080A128A110D
:100F3E0049260A128A11C5300A128A1137260A1258
:100F4E008A113A300A128A1149260A128A11C330BE
:100F5E000A128A1137260A128A11831203132208E3
:100F6E000A128A1149260A128A11C4300A128A11EB
:100F7E0037260A128A118312031324080A128A11C1
:100F8E0049260A128A11C2300A128A1137260A120B
:100F9E008A113A300A128A1149260A128A11C03071
:100FAE000A128A1137260A128A1183120313200895
:100FBE000A128A1149260A128A11C1300A128A119E
:100FCE0037260A128A11831203132A080A128A116B
:100FDE0049260A128A110230F0000030F1000A127E
:100FEE008A1177260A128A11212F83010A128A1179
:020FFE00F42ECF
:00000001FF
